{
  "_format": "hh-sol-artifact-1",
  "contractName": "RandomIpfsNft",
  "sourceName": "contracts/RandomIpfsNft.sol",
  "abi": [
    {
      "inputs": [
        {
          "internalType": "address",
          "name": "vrfCoordinatorV2",
          "type": "address"
        },
        {
          "internalType": "uint64",
          "name": "subscriptionId",
          "type": "uint64"
        },
        {
          "internalType": "bytes32",
          "name": "gasLane",
          "type": "bytes32"
        },
        {
          "internalType": "uint32",
          "name": "callbackGasLimit",
          "type": "uint32"
        }
      ],
      "stateMutability": "nonpayable",
      "type": "constructor"
    },
    {
      "inputs": [
        {
          "internalType": "address",
          "name": "have",
          "type": "address"
        },
        {
          "internalType": "address",
          "name": "want",
          "type": "address"
        }
      ],
      "name": "OnlyCoordinatorCanFulfill",
      "type": "error"
    },
    {
      "inputs": [],
      "name": "RandomIpfsNft__RangeOutOfBounds",
      "type": "error"
    },
    {
      "anonymous": false,
      "inputs": [
        {
          "indexed": true,
          "internalType": "address",
          "name": "owner",
          "type": "address"
        },
        {
          "indexed": true,
          "internalType": "address",
          "name": "approved",
          "type": "address"
        },
        {
          "indexed": true,
          "internalType": "uint256",
          "name": "tokenId",
          "type": "uint256"
        }
      ],
      "name": "Approval",
      "type": "event"
    },
    {
      "anonymous": false,
      "inputs": [
        {
          "indexed": true,
          "internalType": "address",
          "name": "owner",
          "type": "address"
        },
        {
          "indexed": true,
          "internalType": "address",
          "name": "operator",
          "type": "address"
        },
        {
          "indexed": false,
          "internalType": "bool",
          "name": "approved",
          "type": "bool"
        }
      ],
      "name": "ApprovalForAll",
      "type": "event"
    },
    {
      "anonymous": false,
      "inputs": [
        {
          "indexed": true,
          "internalType": "address",
          "name": "from",
          "type": "address"
        },
        {
          "indexed": true,
          "internalType": "address",
          "name": "to",
          "type": "address"
        },
        {
          "indexed": true,
          "internalType": "uint256",
          "name": "tokenId",
          "type": "uint256"
        }
      ],
      "name": "Transfer",
      "type": "event"
    },
    {
      "inputs": [
        {
          "internalType": "address",
          "name": "to",
          "type": "address"
        },
        {
          "internalType": "uint256",
          "name": "tokenId",
          "type": "uint256"
        }
      ],
      "name": "approve",
      "outputs": [],
      "stateMutability": "nonpayable",
      "type": "function"
    },
    {
      "inputs": [
        {
          "internalType": "address",
          "name": "owner",
          "type": "address"
        }
      ],
      "name": "balanceOf",
      "outputs": [
        {
          "internalType": "uint256",
          "name": "",
          "type": "uint256"
        }
      ],
      "stateMutability": "view",
      "type": "function"
    },
    {
      "inputs": [
        {
          "internalType": "uint256",
          "name": "tokenId",
          "type": "uint256"
        }
      ],
      "name": "getApproved",
      "outputs": [
        {
          "internalType": "address",
          "name": "",
          "type": "address"
        }
      ],
      "stateMutability": "view",
      "type": "function"
    },
    {
      "inputs": [
        {
          "internalType": "uint256",
          "name": "moddedRng",
          "type": "uint256"
        }
      ],
      "name": "getBreedFromModdedRng",
      "outputs": [
        {
          "internalType": "enum RandomIpfsNft.Breed",
          "name": "",
          "type": "uint8"
        }
      ],
      "stateMutability": "pure",
      "type": "function"
    },
    {
      "inputs": [],
      "name": "getChanceArray",
      "outputs": [
        {
          "internalType": "uint256[3]",
          "name": "",
          "type": "uint256[3]"
        }
      ],
      "stateMutability": "pure",
      "type": "function"
    },
    {
      "inputs": [
        {
          "internalType": "address",
          "name": "owner",
          "type": "address"
        },
        {
          "internalType": "address",
          "name": "operator",
          "type": "address"
        }
      ],
      "name": "isApprovedForAll",
      "outputs": [
        {
          "internalType": "bool",
          "name": "",
          "type": "bool"
        }
      ],
      "stateMutability": "view",
      "type": "function"
    },
    {
      "inputs": [],
      "name": "name",
      "outputs": [
        {
          "internalType": "string",
          "name": "",
          "type": "string"
        }
      ],
      "stateMutability": "view",
      "type": "function"
    },
    {
      "inputs": [
        {
          "internalType": "uint256",
          "name": "tokenId",
          "type": "uint256"
        }
      ],
      "name": "ownerOf",
      "outputs": [
        {
          "internalType": "address",
          "name": "",
          "type": "address"
        }
      ],
      "stateMutability": "view",
      "type": "function"
    },
    {
      "inputs": [
        {
          "internalType": "uint256",
          "name": "requestId",
          "type": "uint256"
        },
        {
          "internalType": "uint256[]",
          "name": "randomWords",
          "type": "uint256[]"
        }
      ],
      "name": "rawFulfillRandomWords",
      "outputs": [],
      "stateMutability": "nonpayable",
      "type": "function"
    },
    {
      "inputs": [],
      "name": "requestNft",
      "outputs": [
        {
          "internalType": "uint256",
          "name": "requestId",
          "type": "uint256"
        }
      ],
      "stateMutability": "nonpayable",
      "type": "function"
    },
    {
      "inputs": [
        {
          "internalType": "uint256",
          "name": "",
          "type": "uint256"
        }
      ],
      "name": "s_requestIdToSender",
      "outputs": [
        {
          "internalType": "address",
          "name": "",
          "type": "address"
        }
      ],
      "stateMutability": "view",
      "type": "function"
    },
    {
      "inputs": [],
      "name": "s_tokenCounter",
      "outputs": [
        {
          "internalType": "uint256",
          "name": "",
          "type": "uint256"
        }
      ],
      "stateMutability": "view",
      "type": "function"
    },
    {
      "inputs": [
        {
          "internalType": "address",
          "name": "from",
          "type": "address"
        },
        {
          "internalType": "address",
          "name": "to",
          "type": "address"
        },
        {
          "internalType": "uint256",
          "name": "tokenId",
          "type": "uint256"
        }
      ],
      "name": "safeTransferFrom",
      "outputs": [],
      "stateMutability": "nonpayable",
      "type": "function"
    },
    {
      "inputs": [
        {
          "internalType": "address",
          "name": "from",
          "type": "address"
        },
        {
          "internalType": "address",
          "name": "to",
          "type": "address"
        },
        {
          "internalType": "uint256",
          "name": "tokenId",
          "type": "uint256"
        },
        {
          "internalType": "bytes",
          "name": "data",
          "type": "bytes"
        }
      ],
      "name": "safeTransferFrom",
      "outputs": [],
      "stateMutability": "nonpayable",
      "type": "function"
    },
    {
      "inputs": [
        {
          "internalType": "address",
          "name": "operator",
          "type": "address"
        },
        {
          "internalType": "bool",
          "name": "approved",
          "type": "bool"
        }
      ],
      "name": "setApprovalForAll",
      "outputs": [],
      "stateMutability": "nonpayable",
      "type": "function"
    },
    {
      "inputs": [
        {
          "internalType": "bytes4",
          "name": "interfaceId",
          "type": "bytes4"
        }
      ],
      "name": "supportsInterface",
      "outputs": [
        {
          "internalType": "bool",
          "name": "",
          "type": "bool"
        }
      ],
      "stateMutability": "view",
      "type": "function"
    },
    {
      "inputs": [],
      "name": "symbol",
      "outputs": [
        {
          "internalType": "string",
          "name": "",
          "type": "string"
        }
      ],
      "stateMutability": "view",
      "type": "function"
    },
    {
      "inputs": [
        {
          "internalType": "uint256",
          "name": "tokenId",
          "type": "uint256"
        }
      ],
      "name": "tokenURI",
      "outputs": [
        {
          "internalType": "string",
          "name": "",
          "type": "string"
        }
      ],
      "stateMutability": "view",
      "type": "function"
    },
    {
      "inputs": [
        {
          "internalType": "address",
          "name": "from",
          "type": "address"
        },
        {
          "internalType": "address",
          "name": "to",
          "type": "address"
        },
        {
          "internalType": "uint256",
          "name": "tokenId",
          "type": "uint256"
        }
      ],
      "name": "transferFrom",
      "outputs": [],
      "stateMutability": "nonpayable",
      "type": "function"
    }
  ],
  "bytecode": "0x6101206040523480156200001257600080fd5b50604051620031cc380380620031cc83398181016040528101906200003891906200036c565b6040518060400160405280600f81526020017f52616e646f6d2049504653204e465400000000000000000000000000000000008152506040518060400160405280600381526020017f52494e0000000000000000000000000000000000000000000000000000000000815250858073ffffffffffffffffffffffffffffffffffffffff1660808173ffffffffffffffffffffffffffffffffffffffff1660601b81525050508160009080519060200190620000f592919062000191565b5080600190805190602001906200010e92919062000191565b5050508373ffffffffffffffffffffffffffffffffffffffff1660a08173ffffffffffffffffffffffffffffffffffffffff1660601b815250508267ffffffffffffffff1660c08167ffffffffffffffff1660c01b815250508160e081815250508063ffffffff166101008163ffffffff1660e01b815250505050505062000443565b8280546200019f906200040d565b90600052602060002090601f016020900481019282620001c357600085556200020f565b82601f10620001de57805160ff19168380011785556200020f565b828001600101855582156200020f579182015b828111156200020e578251825591602001919060010190620001f1565b5b5090506200021e919062000222565b5090565b5b808211156200023d57600081600090555060010162000223565b5090565b600080fd5b600073ffffffffffffffffffffffffffffffffffffffff82169050919050565b6000620002738262000246565b9050919050565b620002858162000266565b81146200029157600080fd5b50565b600081519050620002a5816200027a565b92915050565b600067ffffffffffffffff82169050919050565b620002ca81620002ab565b8114620002d657600080fd5b50565b600081519050620002ea81620002bf565b92915050565b6000819050919050565b6200030581620002f0565b81146200031157600080fd5b50565b6000815190506200032581620002fa565b92915050565b600063ffffffff82169050919050565b62000346816200032b565b81146200035257600080fd5b50565b60008151905062000366816200033b565b92915050565b6000806000806080858703121562000389576200038862000241565b5b6000620003998782880162000294565b9450506020620003ac87828801620002d9565b9350506040620003bf8782880162000314565b9250506060620003d28782880162000355565b91505092959194509250565b7f4e487b7100000000000000000000000000000000000000000000000000000000600052602260045260246000fd5b600060028204905060018216806200042657607f821691505b602082108114156200043d576200043c620003de565b5b50919050565b60805160601c60a05160601c60c05160c01c60e0516101005160e01c612d316200049b6000396000610ba701526000610b6301526000610b8401526000610b270152600081816106be01526107120152612d316000f3fe608060405234801561001057600080fd5b50600436106101215760003560e01c80636352211e116100ad578063a51cccf311610071578063a51cccf31461031a578063aa1524911461034a578063b88d4fde14610368578063c87b56dd14610384578063e985e9c5146103b457610121565b80636352211e1461025057806370a082311461028057806395d89b41146102b0578063a22cb465146102ce578063a36f573b146102ea57610121565b80630b21a83b116100f45780630b21a83b146101c05780631fe543e3146101de57806323b872dd146101fa57806342842e0e146102165780635dacf5f41461023257610121565b806301ffc9a71461012657806306fdde0314610156578063081812fc14610174578063095ea7b3146101a4575b600080fd5b610140600480360381019061013b9190611b6f565b6103e4565b60405161014d9190611bb7565b60405180910390f35b61015e6104c6565b60405161016b9190611c6b565b60405180910390f35b61018e60048036038101906101899190611cc3565b610558565b60405161019b9190611d31565b60405180910390f35b6101be60048036038101906101b99190611d78565b61059e565b005b6101c86106b6565b6040516101d59190611dc7565b60405180910390f35b6101f860048036038101906101f39190611f2a565b6106bc565b005b610214600480360381019061020f9190611f86565b61077c565b005b610230600480360381019061022b9190611f86565b6107dc565b005b61023a6107fc565b6040516102479190612084565b60405180910390f35b61026a60048036038101906102659190611cc3565b610827565b6040516102779190611d31565b60405180910390f35b61029a6004803603810190610295919061209f565b6108ae565b6040516102a79190611dc7565b60405180910390f35b6102b8610966565b6040516102c59190611c6b565b60405180910390f35b6102e860048036038101906102e391906120f8565b6109f8565b005b61030460048036038101906102ff9190611cc3565b610a0e565b6040516103119190611d31565b60405180910390f35b610334600480360381019061032f9190611cc3565b610a41565b60405161034191906121af565b60405180910390f35b610352610b23565b60405161035f9190611dc7565b60405180910390f35b610382600480360381019061037d919061227f565b610c91565b005b61039e60048036038101906103999190611cc3565b610cf3565b6040516103ab9190611c6b565b60405180910390f35b6103ce60048036038101906103c99190612302565b610cfa565b6040516103db9190611bb7565b60405180910390f35b60007f80ac58cd000000000000000000000000000000000000000000000000000000007bffffffffffffffffffffffffffffffffffffffffffffffffffffffff1916827bffffffffffffffffffffffffffffffffffffffffffffffffffffffff191614806104af57507f5b5e139f000000000000000000000000000000000000000000000000000000007bffffffffffffffffffffffffffffffffffffffffffffffffffffffff1916827bffffffffffffffffffffffffffffffffffffffffffffffffffffffff1916145b806104bf57506104be82610d8e565b5b9050919050565b6060600080546104d590612371565b80601f016020809104026020016040519081016040528092919081815260200182805461050190612371565b801561054e5780601f106105235761010080835404028352916020019161054e565b820191906000526020600020905b81548152906001019060200180831161053157829003601f168201915b5050505050905090565b600061056382610df8565b6004600083815260200190815260200160002060009054906101000a900473ffffffffffffffffffffffffffffffffffffffff169050919050565b60006105a982610827565b90508073ffffffffffffffffffffffffffffffffffffffff168373ffffffffffffffffffffffffffffffffffffffff16141561061a576040517f08c379a000000000000000000000000000000000000000000000000000000000815260040161061190612415565b60405180910390fd5b8073ffffffffffffffffffffffffffffffffffffffff16610639610e43565b73ffffffffffffffffffffffffffffffffffffffff161480610668575061066781610662610e43565b610cfa565b5b6106a7576040517f08c379a000000000000000000000000000000000000000000000000000000000815260040161069e906124a7565b60405180910390fd5b6106b18383610e4b565b505050565b60075481565b7f000000000000000000000000000000000000000000000000000000000000000073ffffffffffffffffffffffffffffffffffffffff163373ffffffffffffffffffffffffffffffffffffffff161461076e57337f00000000000000000000000000000000000000000000000000000000000000006040517f1cf993f40000000000000000000000000000000000000000000000000000000081526004016107659291906124c7565b60405180910390fd5b6107788282610f04565b5050565b61078d610787610e43565b82610f8e565b6107cc576040517f08c379a00000000000000000000000000000000000000000000000000000000081526004016107c390612562565b60405180910390fd5b6107d7838383611023565b505050565b6107f783838360405180602001604052806000815250610c91565b505050565b610804611ae1565b6040518060600160405280600a8152602001601e81526020016064815250905090565b6000806108338361131d565b9050600073ffffffffffffffffffffffffffffffffffffffff168173ffffffffffffffffffffffffffffffffffffffff1614156108a5576040517f08c379a000000000000000000000000000000000000000000000000000000000815260040161089c906125ce565b60405180910390fd5b80915050919050565b60008073ffffffffffffffffffffffffffffffffffffffff168273ffffffffffffffffffffffffffffffffffffffff16141561091f576040517f08c379a000000000000000000000000000000000000000000000000000000000815260040161091690612660565b60405180910390fd5b600360008373ffffffffffffffffffffffffffffffffffffffff1673ffffffffffffffffffffffffffffffffffffffff168152602001908152602001600020549050919050565b60606001805461097590612371565b80601f01602080910402602001604051908101604052809291908181526020018280546109a190612371565b80156109ee5780601f106109c3576101008083540402835291602001916109ee565b820191906000526020600020905b8154815290600101906020018083116109d157829003601f168201915b5050505050905090565b610a0a610a03610e43565b838361135a565b5050565b60066020528060005260406000206000915054906101000a900473ffffffffffffffffffffffffffffffffffffffff1681565b600080600090506000610a526107fc565b905060005b6003811015610aeb57828510158015610a915750818160038110610a7e57610a7d612680565b5b602002015183610a8e91906126de565b85105b15610ab357806002811115610aa957610aa8612138565b5b9350505050610b1e565b818160038110610ac657610ac5612680565b5b602002015183610ad691906126de565b92508080610ae390612734565b915050610a57565b506040517f12806c9d00000000000000000000000000000000000000000000000000000000815260040160405180910390fd5b919050565b60007f000000000000000000000000000000000000000000000000000000000000000073ffffffffffffffffffffffffffffffffffffffff16635d3b1d307f00000000000000000000000000000000000000000000000000000000000000007f000000000000000000000000000000000000000000000000000000000000000060037f000000000000000000000000000000000000000000000000000000000000000060016040518663ffffffff1660e01b8152600401610be89594939291906127f5565b602060405180830381600087803b158015610c0257600080fd5b505af1158015610c16573d6000803e3d6000fd5b505050506040513d601f19601f82011682018060405250810190610c3a919061285d565b9050336006600083815260200190815260200160002060006101000a81548173ffffffffffffffffffffffffffffffffffffffff021916908373ffffffffffffffffffffffffffffffffffffffff16021790555090565b610ca2610c9c610e43565b83610f8e565b610ce1576040517f08c379a0000000000000000000000000000000000000000000000000000000008152600401610cd890612562565b60405180910390fd5b610ced848484846114c7565b50505050565b6060919050565b6000600560008473ffffffffffffffffffffffffffffffffffffffff1673ffffffffffffffffffffffffffffffffffffffff16815260200190815260200160002060008373ffffffffffffffffffffffffffffffffffffffff1673ffffffffffffffffffffffffffffffffffffffff16815260200190815260200160002060009054906101000a900460ff16905092915050565b60007f01ffc9a7000000000000000000000000000000000000000000000000000000007bffffffffffffffffffffffffffffffffffffffffffffffffffffffff1916827bffffffffffffffffffffffffffffffffffffffffffffffffffffffff1916149050919050565b610e0181611523565b610e40576040517f08c379a0000000000000000000000000000000000000000000000000000000008152600401610e37906125ce565b60405180910390fd5b50565b600033905090565b816004600083815260200190815260200160002060006101000a81548173ffffffffffffffffffffffffffffffffffffffff021916908373ffffffffffffffffffffffffffffffffffffffff160217905550808273ffffffffffffffffffffffffffffffffffffffff16610ebe83610827565b73ffffffffffffffffffffffffffffffffffffffff167f8c5be1e5ebec7d5bd14f71427d1e84f3dd0314c0f7b2291e5b200ac8c7c3b92560405160405180910390a45050565b60006006600084815260200190815260200160002060009054906101000a900473ffffffffffffffffffffffffffffffffffffffff169050600060075490506000606484600081518110610f5b57610f5a612680565b5b6020026020010151610f6d91906128b9565b90506000610f7a82610a41565b9050610f868484611564565b505050505050565b600080610f9a83610827565b90508073ffffffffffffffffffffffffffffffffffffffff168473ffffffffffffffffffffffffffffffffffffffff161480610fdc5750610fdb8185610cfa565b5b8061101a57508373ffffffffffffffffffffffffffffffffffffffff1661100284610558565b73ffffffffffffffffffffffffffffffffffffffff16145b91505092915050565b8273ffffffffffffffffffffffffffffffffffffffff1661104382610827565b73ffffffffffffffffffffffffffffffffffffffff1614611099576040517f08c379a00000000000000000000000000000000000000000000000000000000081526004016110909061295c565b60405180910390fd5b600073ffffffffffffffffffffffffffffffffffffffff168273ffffffffffffffffffffffffffffffffffffffff161415611109576040517f08c379a0000000000000000000000000000000000000000000000000000000008152600401611100906129ee565b60405180910390fd5b6111168383836001611582565b8273ffffffffffffffffffffffffffffffffffffffff1661113682610827565b73ffffffffffffffffffffffffffffffffffffffff161461118c576040517f08c379a00000000000000000000000000000000000000000000000000000000081526004016111839061295c565b60405180910390fd5b6004600082815260200190815260200160002060006101000a81549073ffffffffffffffffffffffffffffffffffffffff02191690556001600360008573ffffffffffffffffffffffffffffffffffffffff1673ffffffffffffffffffffffffffffffffffffffff168152602001908152602001600020600082825403925050819055506001600360008473ffffffffffffffffffffffffffffffffffffffff1673ffffffffffffffffffffffffffffffffffffffff16815260200190815260200160002060008282540192505081905550816002600083815260200190815260200160002060006101000a81548173ffffffffffffffffffffffffffffffffffffffff021916908373ffffffffffffffffffffffffffffffffffffffff160217905550808273ffffffffffffffffffffffffffffffffffffffff168473ffffffffffffffffffffffffffffffffffffffff167fddf252ad1be2c89b69c2b068fc378daa952ba7f163c4a11628f55a4df523b3ef60405160405180910390a461131883838360016116a8565b505050565b60006002600083815260200190815260200160002060009054906101000a900473ffffffffffffffffffffffffffffffffffffffff169050919050565b8173ffffffffffffffffffffffffffffffffffffffff168373ffffffffffffffffffffffffffffffffffffffff1614156113c9576040517f08c379a00000000000000000000000000000000000000000000000000000000081526004016113c090612a5a565b60405180910390fd5b80600560008573ffffffffffffffffffffffffffffffffffffffff1673ffffffffffffffffffffffffffffffffffffffff16815260200190815260200160002060008473ffffffffffffffffffffffffffffffffffffffff1673ffffffffffffffffffffffffffffffffffffffff16815260200190815260200160002060006101000a81548160ff0219169083151502179055508173ffffffffffffffffffffffffffffffffffffffff168373ffffffffffffffffffffffffffffffffffffffff167f17307eab39ab6107e8899845ad3d59bd9653f200f220920489ca2b5937696c31836040516114ba9190611bb7565b60405180910390a3505050565b6114d2848484611023565b6114de848484846116ae565b61151d576040517f08c379a000000000000000000000000000000000000000000000000000000000815260040161151490612aec565b60405180910390fd5b50505050565b60008073ffffffffffffffffffffffffffffffffffffffff166115458361131d565b73ffffffffffffffffffffffffffffffffffffffff1614159050919050565b61157e828260405180602001604052806000815250611845565b5050565b60018111156116a257600073ffffffffffffffffffffffffffffffffffffffff168473ffffffffffffffffffffffffffffffffffffffff16146116165780600360008673ffffffffffffffffffffffffffffffffffffffff1673ffffffffffffffffffffffffffffffffffffffff168152602001908152602001600020600082825461160e9190612b0c565b925050819055505b600073ffffffffffffffffffffffffffffffffffffffff168373ffffffffffffffffffffffffffffffffffffffff16146116a15780600360008573ffffffffffffffffffffffffffffffffffffffff1673ffffffffffffffffffffffffffffffffffffffff168152602001908152602001600020600082825461169991906126de565b925050819055505b5b50505050565b50505050565b60006116cf8473ffffffffffffffffffffffffffffffffffffffff166118a0565b15611838578373ffffffffffffffffffffffffffffffffffffffff1663150b7a026116f8610e43565b8786866040518563ffffffff1660e01b815260040161171a9493929190612b95565b602060405180830381600087803b15801561173457600080fd5b505af192505050801561176557506040513d601f19601f820116820180604052508101906117629190612bf6565b60015b6117e8573d8060008114611795576040519150601f19603f3d011682016040523d82523d6000602084013e61179a565b606091505b506000815114156117e0576040517f08c379a00000000000000000000000000000000000000000000000000000000081526004016117d790612aec565b60405180910390fd5b805181602001fd5b63150b7a0260e01b7bffffffffffffffffffffffffffffffffffffffffffffffffffffffff1916817bffffffffffffffffffffffffffffffffffffffffffffffffffffffff19161491505061183d565b600190505b949350505050565b61184f83836118c3565b61185c60008484846116ae565b61189b576040517f08c379a000000000000000000000000000000000000000000000000000000000815260040161189290612aec565b60405180910390fd5b505050565b6000808273ffffffffffffffffffffffffffffffffffffffff163b119050919050565b600073ffffffffffffffffffffffffffffffffffffffff168273ffffffffffffffffffffffffffffffffffffffff161415611933576040517f08c379a000000000000000000000000000000000000000000000000000000000815260040161192a90612c6f565b60405180910390fd5b61193c81611523565b1561197c576040517f08c379a000000000000000000000000000000000000000000000000000000000815260040161197390612cdb565b60405180910390fd5b61198a600083836001611582565b61199381611523565b156119d3576040517f08c379a00000000000000000000000000000000000000000000000000000000081526004016119ca90612cdb565b60405180910390fd5b6001600360008473ffffffffffffffffffffffffffffffffffffffff1673ffffffffffffffffffffffffffffffffffffffff16815260200190815260200160002060008282540192505081905550816002600083815260200190815260200160002060006101000a81548173ffffffffffffffffffffffffffffffffffffffff021916908373ffffffffffffffffffffffffffffffffffffffff160217905550808273ffffffffffffffffffffffffffffffffffffffff16600073ffffffffffffffffffffffffffffffffffffffff167fddf252ad1be2c89b69c2b068fc378daa952ba7f163c4a11628f55a4df523b3ef60405160405180910390a4611add6000838360016116a8565b5050565b6040518060600160405280600390602082028036833780820191505090505090565b6000604051905090565b600080fd5b600080fd5b60007fffffffff0000000000000000000000000000000000000000000000000000000082169050919050565b611b4c81611b17565b8114611b5757600080fd5b50565b600081359050611b6981611b43565b92915050565b600060208284031215611b8557611b84611b0d565b5b6000611b9384828501611b5a565b91505092915050565b60008115159050919050565b611bb181611b9c565b82525050565b6000602082019050611bcc6000830184611ba8565b92915050565b600081519050919050565b600082825260208201905092915050565b60005b83811015611c0c578082015181840152602081019050611bf1565b83811115611c1b576000848401525b50505050565b6000601f19601f8301169050919050565b6000611c3d82611bd2565b611c478185611bdd565b9350611c57818560208601611bee565b611c6081611c21565b840191505092915050565b60006020820190508181036000830152611c858184611c32565b905092915050565b6000819050919050565b611ca081611c8d565b8114611cab57600080fd5b50565b600081359050611cbd81611c97565b92915050565b600060208284031215611cd957611cd8611b0d565b5b6000611ce784828501611cae565b91505092915050565b600073ffffffffffffffffffffffffffffffffffffffff82169050919050565b6000611d1b82611cf0565b9050919050565b611d2b81611d10565b82525050565b6000602082019050611d466000830184611d22565b92915050565b611d5581611d10565b8114611d6057600080fd5b50565b600081359050611d7281611d4c565b92915050565b60008060408385031215611d8f57611d8e611b0d565b5b6000611d9d85828601611d63565b9250506020611dae85828601611cae565b9150509250929050565b611dc181611c8d565b82525050565b6000602082019050611ddc6000830184611db8565b92915050565b600080fd5b7f4e487b7100000000000000000000000000000000000000000000000000000000600052604160045260246000fd5b611e1f82611c21565b810181811067ffffffffffffffff82111715611e3e57611e3d611de7565b5b80604052505050565b6000611e51611b03565b9050611e5d8282611e16565b919050565b600067ffffffffffffffff821115611e7d57611e7c611de7565b5b602082029050602081019050919050565b600080fd5b6000611ea6611ea184611e62565b611e47565b90508083825260208201905060208402830185811115611ec957611ec8611e8e565b5b835b81811015611ef25780611ede8882611cae565b845260208401935050602081019050611ecb565b5050509392505050565b600082601f830112611f1157611f10611de2565b5b8135611f21848260208601611e93565b91505092915050565b60008060408385031215611f4157611f40611b0d565b5b6000611f4f85828601611cae565b925050602083013567ffffffffffffffff811115611f7057611f6f611b12565b5b611f7c85828601611efc565b9150509250929050565b600080600060608486031215611f9f57611f9e611b0d565b5b6000611fad86828701611d63565b9350506020611fbe86828701611d63565b9250506040611fcf86828701611cae565b9150509250925092565b600060039050919050565b600081905092915050565b6000819050919050565b61200281611c8d565b82525050565b60006120148383611ff9565b60208301905092915050565b6000602082019050919050565b61203681611fd9565b6120408184611fe4565b925061204b82611fef565b8060005b8381101561207c5781516120638782612008565b965061206e83612020565b92505060018101905061204f565b505050505050565b6000606082019050612099600083018461202d565b92915050565b6000602082840312156120b5576120b4611b0d565b5b60006120c384828501611d63565b91505092915050565b6120d581611b9c565b81146120e057600080fd5b50565b6000813590506120f2816120cc565b92915050565b6000806040838503121561210f5761210e611b0d565b5b600061211d85828601611d63565b925050602061212e858286016120e3565b9150509250929050565b7f4e487b7100000000000000000000000000000000000000000000000000000000600052602160045260246000fd5b6003811061217857612177612138565b5b50565b600081905061218982612167565b919050565b60006121998261217b565b9050919050565b6121a98161218e565b82525050565b60006020820190506121c460008301846121a0565b92915050565b600080fd5b600067ffffffffffffffff8211156121ea576121e9611de7565b5b6121f382611c21565b9050602081019050919050565b82818337600083830152505050565b600061222261221d846121cf565b611e47565b90508281526020810184848401111561223e5761223d6121ca565b5b612249848285612200565b509392505050565b600082601f83011261226657612265611de2565b5b813561227684826020860161220f565b91505092915050565b6000806000806080858703121561229957612298611b0d565b5b60006122a787828801611d63565b94505060206122b887828801611d63565b93505060406122c987828801611cae565b925050606085013567ffffffffffffffff8111156122ea576122e9611b12565b5b6122f687828801612251565b91505092959194509250565b6000806040838503121561231957612318611b0d565b5b600061232785828601611d63565b925050602061233885828601611d63565b9150509250929050565b7f4e487b7100000000000000000000000000000000000000000000000000000000600052602260045260246000fd5b6000600282049050600182168061238957607f821691505b6020821081141561239d5761239c612342565b5b50919050565b7f4552433732313a20617070726f76616c20746f2063757272656e74206f776e6560008201527f7200000000000000000000000000000000000000000000000000000000000000602082015250565b60006123ff602183611bdd565b915061240a826123a3565b604082019050919050565b6000602082019050818103600083015261242e816123f2565b9050919050565b7f4552433732313a20617070726f76652063616c6c6572206973206e6f7420746f60008201527f6b656e206f776e6572206f7220617070726f76656420666f7220616c6c000000602082015250565b6000612491603d83611bdd565b915061249c82612435565b604082019050919050565b600060208201905081810360008301526124c081612484565b9050919050565b60006040820190506124dc6000830185611d22565b6124e96020830184611d22565b9392505050565b7f4552433732313a2063616c6c6572206973206e6f7420746f6b656e206f776e6560008201527f72206f7220617070726f76656400000000000000000000000000000000000000602082015250565b600061254c602d83611bdd565b9150612557826124f0565b604082019050919050565b6000602082019050818103600083015261257b8161253f565b9050919050565b7f4552433732313a20696e76616c696420746f6b656e2049440000000000000000600082015250565b60006125b8601883611bdd565b91506125c382612582565b602082019050919050565b600060208201905081810360008301526125e7816125ab565b9050919050565b7f4552433732313a2061646472657373207a65726f206973206e6f74206120766160008201527f6c6964206f776e65720000000000000000000000000000000000000000000000602082015250565b600061264a602983611bdd565b9150612655826125ee565b604082019050919050565b600060208201905081810360008301526126798161263d565b9050919050565b7f4e487b7100000000000000000000000000000000000000000000000000000000600052603260045260246000fd5b7f4e487b7100000000000000000000000000000000000000000000000000000000600052601160045260246000fd5b60006126e982611c8d565b91506126f483611c8d565b9250827fffffffffffffffffffffffffffffffffffffffffffffffffffffffffffffffff03821115612729576127286126af565b5b828201905092915050565b600061273f82611c8d565b91507fffffffffffffffffffffffffffffffffffffffffffffffffffffffffffffffff821415612772576127716126af565b5b600182019050919050565b6000819050919050565b6127908161277d565b82525050565b600067ffffffffffffffff82169050919050565b6127b381612796565b82525050565b600061ffff82169050919050565b6127d0816127b9565b82525050565b600063ffffffff82169050919050565b6127ef816127d6565b82525050565b600060a08201905061280a6000830188612787565b61281760208301876127aa565b61282460408301866127c7565b61283160608301856127e6565b61283e60808301846127e6565b9695505050505050565b60008151905061285781611c97565b92915050565b60006020828403121561287357612872611b0d565b5b600061288184828501612848565b91505092915050565b7f4e487b7100000000000000000000000000000000000000000000000000000000600052601260045260246000fd5b60006128c482611c8d565b91506128cf83611c8d565b9250826128df576128de61288a565b5b828206905092915050565b7f4552433732313a207472616e736665722066726f6d20696e636f72726563742060008201527f6f776e6572000000000000000000000000000000000000000000000000000000602082015250565b6000612946602583611bdd565b9150612951826128ea565b604082019050919050565b6000602082019050818103600083015261297581612939565b9050919050565b7f4552433732313a207472616e7366657220746f20746865207a65726f2061646460008201527f7265737300000000000000000000000000000000000000000000000000000000602082015250565b60006129d8602483611bdd565b91506129e38261297c565b604082019050919050565b60006020820190508181036000830152612a07816129cb565b9050919050565b7f4552433732313a20617070726f766520746f2063616c6c657200000000000000600082015250565b6000612a44601983611bdd565b9150612a4f82612a0e565b602082019050919050565b60006020820190508181036000830152612a7381612a37565b9050919050565b7f4552433732313a207472616e7366657220746f206e6f6e20455243373231526560008201527f63656976657220696d706c656d656e7465720000000000000000000000000000602082015250565b6000612ad6603283611bdd565b9150612ae182612a7a565b604082019050919050565b60006020820190508181036000830152612b0581612ac9565b9050919050565b6000612b1782611c8d565b9150612b2283611c8d565b925082821015612b3557612b346126af565b5b828203905092915050565b600081519050919050565b600082825260208201905092915050565b6000612b6782612b40565b612b718185612b4b565b9350612b81818560208601611bee565b612b8a81611c21565b840191505092915050565b6000608082019050612baa6000830187611d22565b612bb76020830186611d22565b612bc46040830185611db8565b8181036060830152612bd68184612b5c565b905095945050505050565b600081519050612bf081611b43565b92915050565b600060208284031215612c0c57612c0b611b0d565b5b6000612c1a84828501612be1565b91505092915050565b7f4552433732313a206d696e7420746f20746865207a65726f2061646472657373600082015250565b6000612c59602083611bdd565b9150612c6482612c23565b602082019050919050565b60006020820190508181036000830152612c8881612c4c565b9050919050565b7f4552433732313a20746f6b656e20616c7265616479206d696e74656400000000600082015250565b6000612cc5601c83611bdd565b9150612cd082612c8f565b602082019050919050565b60006020820190508181036000830152612cf481612cb8565b905091905056fea264697066735822122049c321713b151e0adb671b80d665d11c035b381ddeefcff324980e72362a88fd64736f6c63430008080033",
  "linkReferences": {},
  "deployedLinkReferences": {}
}